{
  "_format": "hh-sol-artifact-1",
  "contractName": "Ape",
  "sourceName": "contracts/Ape.sol",
  "abi": [
    {
      "inputs": [],
      "stateMutability": "nonpayable",
      "type": "constructor"
    },
    {
      "inputs": [
        {
          "internalType": "address",
          "name": "_user",
          "type": "address"
        },
        {
          "internalType": "string",
          "name": "_nft",
          "type": "string"
        }
      ],
      "name": "addToLedger",
      "outputs": [],
      "stateMutability": "nonpayable",
      "type": "function"
    },
    {
      "inputs": [
        {
          "internalType": "address",
          "name": "",
          "type": "address"
        }
      ],
      "name": "addressToNft",
      "outputs": [
        {
          "internalType": "string",
          "name": "",
          "type": "string"
        }
      ],
      "stateMutability": "view",
      "type": "function"
    },
    {
      "inputs": [
        {
          "internalType": "address",
          "name": "_user",
          "type": "address"
        }
      ],
      "name": "isAuthenticated",
      "outputs": [
        {
          "internalType": "bool",
          "name": "",
          "type": "bool"
        }
      ],
      "stateMutability": "view",
      "type": "function"
    },
    {
      "inputs": [
        {
          "internalType": "address",
          "name": "",
          "type": "address"
        }
      ],
      "name": "isValid",
      "outputs": [
        {
          "internalType": "bool",
          "name": "",
          "type": "bool"
        }
      ],
      "stateMutability": "view",
      "type": "function"
    }
  ],
  "bytecode": "0x608060405234801561001057600080fd5b5061071c806100206000396000f3fe608060405234801561001057600080fd5b506004361061004c5760003560e01c806341659b8214610051578063720238d31461006d5780638b1b925f1461009d578063d15d4150146100cd575b600080fd5b61006b6004803603810190610066919061051c565b6100fd565b005b61008760048036038101906100829190610578565b6101ab565b604051610094919061062d565b60405180910390f35b6100b760048036038101906100b29190610578565b61024b565b6040516100c4919061066a565b60405180910390f35b6100e760048036038101906100e29190610578565b61026b565b6040516100f4919061066a565b60405180910390f35b806000808473ffffffffffffffffffffffffffffffffffffffff1673ffffffffffffffffffffffffffffffffffffffff168152602001908152602001600020908051906020019061014f9291906102c1565b5060018060008473ffffffffffffffffffffffffffffffffffffffff1673ffffffffffffffffffffffffffffffffffffffff16815260200190815260200160002060006101000a81548160ff0219169083151502179055505050565b600060205280600052604060002060009150905080546101ca906106b4565b80601f01602080910402602001604051908101604052809291908181526020018280546101f6906106b4565b80156102435780601f1061021857610100808354040283529160200191610243565b820191906000526020600020905b81548152906001019060200180831161022657829003601f168201915b505050505081565b60016020528060005260406000206000915054906101000a900460ff1681565b6000600160008373ffffffffffffffffffffffffffffffffffffffff1673ffffffffffffffffffffffffffffffffffffffff16815260200190815260200160002060009054906101000a900460ff169050919050565b8280546102cd906106b4565b90600052602060002090601f0160209004810192826102ef5760008555610336565b82601f1061030857805160ff1916838001178555610336565b82800160010185558215610336579182015b8281111561033557825182559160200191906001019061031a565b5b5090506103439190610347565b5090565b5b80821115610360576000816000905550600101610348565b5090565b6000604051905090565b600080fd5b600080fd5b600073ffffffffffffffffffffffffffffffffffffffff82169050919050565b60006103a382610378565b9050919050565b6103b381610398565b81146103be57600080fd5b50565b6000813590506103d0816103aa565b92915050565b600080fd5b600080fd5b6000601f19601f8301169050919050565b7f4e487b7100000000000000000000000000000000000000000000000000000000600052604160045260246000fd5b610429826103e0565b810181811067ffffffffffffffff82111715610448576104476103f1565b5b80604052505050565b600061045b610364565b90506104678282610420565b919050565b600067ffffffffffffffff821115610487576104866103f1565b5b610490826103e0565b9050602081019050919050565b82818337600083830152505050565b60006104bf6104ba8461046c565b610451565b9050828152602081018484840111156104db576104da6103db565b5b6104e684828561049d565b509392505050565b600082601f830112610503576105026103d6565b5b81356105138482602086016104ac565b91505092915050565b600080604083850312156105335761053261036e565b5b6000610541858286016103c1565b925050602083013567ffffffffffffffff81111561056257610561610373565b5b61056e858286016104ee565b9150509250929050565b60006020828403121561058e5761058d61036e565b5b600061059c848285016103c1565b91505092915050565b600081519050919050565b600082825260208201905092915050565b60005b838110156105df5780820151818401526020810190506105c4565b838111156105ee576000848401525b50505050565b60006105ff826105a5565b61060981856105b0565b93506106198185602086016105c1565b610622816103e0565b840191505092915050565b6000602082019050818103600083015261064781846105f4565b905092915050565b60008115159050919050565b6106648161064f565b82525050565b600060208201905061067f600083018461065b565b92915050565b7f4e487b7100000000000000000000000000000000000000000000000000000000600052602260045260246000fd5b600060028204905060018216806106cc57607f821691505b602082108114156106e0576106df610685565b5b5091905056fea2646970667358221220449a537294b9b4f09e45d30c095ac26cea4a9f8ae7f0bf6a4d077fcabc025b8164736f6c634300080a0033",
  "linkReferences": {},
  "deployedLinkReferences": {}
}